{
  "_format": "hh-sol-artifact-1",
  "contractName": "MyToken",
  "sourceName": "contracts/MyToken.sol",
  "abi": [
    {
      "inputs": [
        {
          "internalType": "uint256",
          "name": "initialSupply",
          "type": "uint256"
        }
      ],
      "stateMutability": "nonpayable",
      "type": "constructor"
    },
    {
      "inputs": [
        {
          "internalType": "address",
          "name": "spender",
          "type": "address"
        },
        {
          "internalType": "uint256",
          "name": "allowance",
          "type": "uint256"
        },
        {
          "internalType": "uint256",
          "name": "needed",
          "type": "uint256"
        }
      ],
      "name": "ERC20InsufficientAllowance",
      "type": "error"
    },
    {
      "inputs": [
        {
          "internalType": "address",
          "name": "sender",
          "type": "address"
        },
        {
          "internalType": "uint256",
          "name": "balance",
          "type": "uint256"
        },
        {
          "internalType": "uint256",
          "name": "needed",
          "type": "uint256"
        }
      ],
      "name": "ERC20InsufficientBalance",
      "type": "error"
    },
    {
      "inputs": [
        {
          "internalType": "address",
          "name": "approver",
          "type": "address"
        }
      ],
      "name": "ERC20InvalidApprover",
      "type": "error"
    },
    {
      "inputs": [
        {
          "internalType": "address",
          "name": "receiver",
          "type": "address"
        }
      ],
      "name": "ERC20InvalidReceiver",
      "type": "error"
    },
    {
      "inputs": [
        {
          "internalType": "address",
          "name": "sender",
          "type": "address"
        }
      ],
      "name": "ERC20InvalidSender",
      "type": "error"
    },
    {
      "inputs": [
        {
          "internalType": "address",
          "name": "spender",
          "type": "address"
        }
      ],
      "name": "ERC20InvalidSpender",
      "type": "error"
    },
    {
      "inputs": [],
      "name": "EnforcedPause",
      "type": "error"
    },
    {
      "inputs": [],
      "name": "ExpectedPause",
      "type": "error"
    },
    {
      "inputs": [
        {
          "internalType": "address",
          "name": "owner",
          "type": "address"
        }
      ],
      "name": "OwnableInvalidOwner",
      "type": "error"
    },
    {
      "inputs": [
        {
          "internalType": "address",
          "name": "account",
          "type": "address"
        }
      ],
      "name": "OwnableUnauthorizedAccount",
      "type": "error"
    },
    {
      "anonymous": false,
      "inputs": [
        {
          "indexed": true,
          "internalType": "address",
          "name": "owner",
          "type": "address"
        },
        {
          "indexed": true,
          "internalType": "address",
          "name": "spender",
          "type": "address"
        },
        {
          "indexed": false,
          "internalType": "uint256",
          "name": "value",
          "type": "uint256"
        }
      ],
      "name": "Approval",
      "type": "event"
    },
    {
      "anonymous": false,
      "inputs": [
        {
          "indexed": true,
          "internalType": "address",
          "name": "previousOwner",
          "type": "address"
        },
        {
          "indexed": true,
          "internalType": "address",
          "name": "newOwner",
          "type": "address"
        }
      ],
      "name": "OwnershipTransferred",
      "type": "event"
    },
    {
      "anonymous": false,
      "inputs": [
        {
          "indexed": false,
          "internalType": "address",
          "name": "account",
          "type": "address"
        }
      ],
      "name": "Paused",
      "type": "event"
    },
    {
      "anonymous": false,
      "inputs": [
        {
          "indexed": true,
          "internalType": "address",
          "name": "from",
          "type": "address"
        },
        {
          "indexed": true,
          "internalType": "address",
          "name": "to",
          "type": "address"
        },
        {
          "indexed": false,
          "internalType": "uint256",
          "name": "value",
          "type": "uint256"
        }
      ],
      "name": "Transfer",
      "type": "event"
    },
    {
      "anonymous": false,
      "inputs": [
        {
          "indexed": false,
          "internalType": "address",
          "name": "account",
          "type": "address"
        }
      ],
      "name": "Unpaused",
      "type": "event"
    },
    {
      "inputs": [
        {
          "internalType": "address",
          "name": "owner",
          "type": "address"
        },
        {
          "internalType": "address",
          "name": "spender",
          "type": "address"
        }
      ],
      "name": "allowance",
      "outputs": [
        {
          "internalType": "uint256",
          "name": "",
          "type": "uint256"
        }
      ],
      "stateMutability": "view",
      "type": "function"
    },
    {
      "inputs": [
        {
          "internalType": "address",
          "name": "spender",
          "type": "address"
        },
        {
          "internalType": "uint256",
          "name": "value",
          "type": "uint256"
        }
      ],
      "name": "approve",
      "outputs": [
        {
          "internalType": "bool",
          "name": "",
          "type": "bool"
        }
      ],
      "stateMutability": "nonpayable",
      "type": "function"
    },
    {
      "inputs": [
        {
          "internalType": "address",
          "name": "account",
          "type": "address"
        }
      ],
      "name": "balanceOf",
      "outputs": [
        {
          "internalType": "uint256",
          "name": "",
          "type": "uint256"
        }
      ],
      "stateMutability": "view",
      "type": "function"
    },
    {
      "inputs": [
        {
          "internalType": "uint256",
          "name": "amount",
          "type": "uint256"
        }
      ],
      "name": "burn",
      "outputs": [],
      "stateMutability": "nonpayable",
      "type": "function"
    },
    {
      "inputs": [
        {
          "internalType": "address",
          "name": "account",
          "type": "address"
        },
        {
          "internalType": "uint256",
          "name": "value",
          "type": "uint256"
        }
      ],
      "name": "burnFrom",
      "outputs": [],
      "stateMutability": "nonpayable",
      "type": "function"
    },
    {
      "inputs": [],
      "name": "decimals",
      "outputs": [
        {
          "internalType": "uint8",
          "name": "",
          "type": "uint8"
        }
      ],
      "stateMutability": "view",
      "type": "function"
    },
    {
      "inputs": [
        {
          "internalType": "address",
          "name": "to",
          "type": "address"
        },
        {
          "internalType": "uint256",
          "name": "amount",
          "type": "uint256"
        }
      ],
      "name": "mint",
      "outputs": [],
      "stateMutability": "nonpayable",
      "type": "function"
    },
    {
      "inputs": [],
      "name": "name",
      "outputs": [
        {
          "internalType": "string",
          "name": "",
          "type": "string"
        }
      ],
      "stateMutability": "view",
      "type": "function"
    },
    {
      "inputs": [],
      "name": "owner",
      "outputs": [
        {
          "internalType": "address",
          "name": "",
          "type": "address"
        }
      ],
      "stateMutability": "view",
      "type": "function"
    },
    {
      "inputs": [],
      "name": "pause",
      "outputs": [],
      "stateMutability": "nonpayable",
      "type": "function"
    },
    {
      "inputs": [],
      "name": "paused",
      "outputs": [
        {
          "internalType": "bool",
          "name": "",
          "type": "bool"
        }
      ],
      "stateMutability": "view",
      "type": "function"
    },
    {
      "inputs": [],
      "name": "renounceOwnership",
      "outputs": [],
      "stateMutability": "nonpayable",
      "type": "function"
    },
    {
      "inputs": [],
      "name": "symbol",
      "outputs": [
        {
          "internalType": "string",
          "name": "",
          "type": "string"
        }
      ],
      "stateMutability": "view",
      "type": "function"
    },
    {
      "inputs": [],
      "name": "totalSupply",
      "outputs": [
        {
          "internalType": "uint256",
          "name": "",
          "type": "uint256"
        }
      ],
      "stateMutability": "view",
      "type": "function"
    },
    {
      "inputs": [
        {
          "internalType": "address",
          "name": "to",
          "type": "address"
        },
        {
          "internalType": "uint256",
          "name": "value",
          "type": "uint256"
        }
      ],
      "name": "transfer",
      "outputs": [
        {
          "internalType": "bool",
          "name": "",
          "type": "bool"
        }
      ],
      "stateMutability": "nonpayable",
      "type": "function"
    },
    {
      "inputs": [
        {
          "internalType": "address",
          "name": "from",
          "type": "address"
        },
        {
          "internalType": "address",
          "name": "to",
          "type": "address"
        },
        {
          "internalType": "uint256",
          "name": "value",
          "type": "uint256"
        }
      ],
      "name": "transferFrom",
      "outputs": [
        {
          "internalType": "bool",
          "name": "",
          "type": "bool"
        }
      ],
      "stateMutability": "nonpayable",
      "type": "function"
    },
    {
      "inputs": [
        {
          "internalType": "address",
          "name": "newOwner",
          "type": "address"
        }
      ],
      "name": "transferOwnership",
      "outputs": [],
      "stateMutability": "nonpayable",
      "type": "function"
    },
    {
      "inputs": [],
      "name": "unpause",
      "outputs": [],
      "stateMutability": "nonpayable",
      "type": "function"
    }
  ],
  "bytecode": "0x60806040523480156200001157600080fd5b5060405162001fae38038062001fae8339818101604052810190620000379190620005e9565b336040518060400160405280600781526020017f4d79546f6b656e000000000000000000000000000000000000000000000000008152506040518060400160405280600381526020017f4d544b00000000000000000000000000000000000000000000000000000000008152508160039081620000b591906200088b565b508060049081620000c791906200088b565b5050506000600560006101000a81548160ff021916908315150217905550600073ffffffffffffffffffffffffffffffffffffffff168173ffffffffffffffffffffffffffffffffffffffff16036200015a5760006040517f1e4fbdf7000000000000000000000000000000000000000000000000000000008152600401620001519190620009b7565b60405180910390fd5b6200016b816200018560201b60201c565b506200017e33826200024b60201b60201c565b5062000aa9565b6000600560019054906101000a900473ffffffffffffffffffffffffffffffffffffffff16905081600560016101000a81548173ffffffffffffffffffffffffffffffffffffffff021916908373ffffffffffffffffffffffffffffffffffffffff1602179055508173ffffffffffffffffffffffffffffffffffffffff168173ffffffffffffffffffffffffffffffffffffffff167f8be0079c531659141344cd1fd0a4f28419497f9722a3daafe3b4186f6b6457e060405160405180910390a35050565b600073ffffffffffffffffffffffffffffffffffffffff168273ffffffffffffffffffffffffffffffffffffffff1603620002c05760006040517fec442f05000000000000000000000000000000000000000000000000000000008152600401620002b79190620009b7565b60405180910390fd5b620002d460008383620002d860201b60201c565b5050565b620002eb838383620002f060201b60201c565b505050565b620003006200031860201b60201c565b620003138383836200036260201b60201c565b505050565b620003286200059260201b60201c565b1562000360576040517fd93c066500000000000000000000000000000000000000000000000000000000815260040160405180910390fd5b565b600073ffffffffffffffffffffffffffffffffffffffff168373ffffffffffffffffffffffffffffffffffffffff1603620003b8578060026000828254620003ab919062000a03565b925050819055506200048e565b60008060008573ffffffffffffffffffffffffffffffffffffffff1673ffffffffffffffffffffffffffffffffffffffff1681526020019081526020016000205490508181101562000447578381836040517fe450d38c0000000000000000000000000000000000000000000000000000000081526004016200043e9392919062000a4f565b60405180910390fd5b8181036000808673ffffffffffffffffffffffffffffffffffffffff1673ffffffffffffffffffffffffffffffffffffffff16815260200190815260200160002081905550505b600073ffffffffffffffffffffffffffffffffffffffff168273ffffffffffffffffffffffffffffffffffffffff1603620004d9578060026000828254039250508190555062000526565b806000808473ffffffffffffffffffffffffffffffffffffffff1673ffffffffffffffffffffffffffffffffffffffff168152602001908152602001600020600082825401925050819055505b8173ffffffffffffffffffffffffffffffffffffffff168373ffffffffffffffffffffffffffffffffffffffff167fddf252ad1be2c89b69c2b068fc378daa952ba7f163c4a11628f55a4df523b3ef8360405162000585919062000a8c565b60405180910390a3505050565b6000600560009054906101000a900460ff16905090565b600080fd5b6000819050919050565b620005c381620005ae565b8114620005cf57600080fd5b50565b600081519050620005e381620005b8565b92915050565b600060208284031215620006025762000601620005a9565b5b60006200061284828501620005d2565b91505092915050565b600081519050919050565b7f4e487b7100000000000000000000000000000000000000000000000000000000600052604160045260246000fd5b7f4e487b7100000000000000000000000000000000000000000000000000000000600052602260045260246000fd5b600060028204905060018216806200069d57607f821691505b602082108103620006b357620006b262000655565b5b50919050565b60008190508160005260206000209050919050565b60006020601f8301049050919050565b600082821b905092915050565b6000600883026200071d7fffffffffffffffffffffffffffffffffffffffffffffffffffffffffffffffff82620006de565b620007298683620006de565b95508019841693508086168417925050509392505050565b6000819050919050565b60006200076c620007666200076084620005ae565b62000741565b620005ae565b9050919050565b6000819050919050565b62000788836200074b565b620007a0620007978262000773565b848454620006eb565b825550505050565b600090565b620007b7620007a8565b620007c48184846200077d565b505050565b5b81811015620007ec57620007e0600082620007ad565b600181019050620007ca565b5050565b601f8211156200083b576200080581620006b9565b6200081084620006ce565b8101602085101562000820578190505b620008386200082f85620006ce565b830182620007c9565b50505b505050565b600082821c905092915050565b6000620008606000198460080262000840565b1980831691505092915050565b60006200087b83836200084d565b9150826002028217905092915050565b62000896826200061b565b67ffffffffffffffff811115620008b257620008b162000626565b5b620008be825462000684565b620008cb828285620007f0565b600060209050601f831160018114620009035760008415620008ee578287015190505b620008fa85826200086d565b8655506200096a565b601f1984166200091386620006b9565b60005b828110156200093d5784890151825560018201915060208501945060208101905062000916565b868310156200095d578489015162000959601f8916826200084d565b8355505b6001600288020188555050505b505050505050565b600073ffffffffffffffffffffffffffffffffffffffff82169050919050565b60006200099f8262000972565b9050919050565b620009b18162000992565b82525050565b6000602082019050620009ce6000830184620009a6565b92915050565b7f4e487b7100000000000000000000000000000000000000000000000000000000600052601160045260246000fd5b600062000a1082620005ae565b915062000a1d83620005ae565b925082820190508082111562000a385762000a37620009d4565b5b92915050565b62000a4981620005ae565b82525050565b600060608201905062000a666000830186620009a6565b62000a75602083018562000a3e565b62000a84604083018462000a3e565b949350505050565b600060208201905062000aa3600083018462000a3e565b92915050565b6114f58062000ab96000396000f3fe608060405234801561001057600080fd5b50600436106101165760003560e01c806370a08231116100a25780638da5cb5b116100715780638da5cb5b1461029557806395d89b41146102b3578063a9059cbb146102d1578063dd62ed3e14610301578063f2fde38b1461033157610116565b806370a0823114610235578063715018a61461026557806379cc67901461026f5780638456cb591461028b57610116565b8063313ce567116100e9578063313ce567146101b75780633f4ba83a146101d557806340c10f19146101df57806342966c68146101fb5780635c975abb1461021757610116565b806306fdde031461011b578063095ea7b31461013957806318160ddd1461016957806323b872dd14610187575b600080fd5b61012361034d565b604051610130919061111c565b60405180910390f35b610153600480360381019061014e91906111d7565b6103df565b6040516101609190611232565b60405180910390f35b610171610402565b60405161017e919061125c565b60405180910390f35b6101a1600480360381019061019c9190611277565b61040c565b6040516101ae9190611232565b60405180910390f35b6101bf61043b565b6040516101cc91906112e6565b60405180910390f35b6101dd610444565b005b6101f960048036038101906101f491906111d7565b610456565b005b61021560048036038101906102109190611301565b610474565b005b61021f610488565b60405161022c9190611232565b60405180910390f35b61024f600480360381019061024a919061132e565b61049f565b60405161025c919061125c565b60405180910390f35b61026d6104e7565b005b610289600480360381019061028491906111d7565b6104fb565b005b61029361051b565b005b61029d61052d565b6040516102aa919061136a565b60405180910390f35b6102bb610557565b6040516102c8919061111c565b60405180910390f35b6102eb60048036038101906102e691906111d7565b6105e9565b6040516102f89190611232565b60405180910390f35b61031b60048036038101906103169190611385565b61060c565b604051610328919061125c565b60405180910390f35b61034b6004803603810190610346919061132e565b610693565b005b60606003805461035c906113f4565b80601f0160208091040260200160405190810160405280929190818152602001828054610388906113f4565b80156103d55780601f106103aa576101008083540402835291602001916103d5565b820191906000526020600020905b8154815290600101906020018083116103b857829003601f168201915b5050505050905090565b6000806103ea610719565b90506103f7818585610721565b600191505092915050565b6000600254905090565b600080610417610719565b9050610424858285610733565b61042f8585856107c8565b60019150509392505050565b60006012905090565b61044c6108bc565b610454610943565b565b61045e6108bc565b6104666109a6565b61047082826109e7565b5050565b61047c6109a6565b61048581610a69565b50565b6000600560009054906101000a900460ff16905090565b60008060008373ffffffffffffffffffffffffffffffffffffffff1673ffffffffffffffffffffffffffffffffffffffff168152602001908152602001600020549050919050565b6104ef6108bc565b6104f96000610a7d565b565b61050d82610507610719565b83610733565b6105178282610b43565b5050565b6105236108bc565b61052b610bc5565b565b6000600560019054906101000a900473ffffffffffffffffffffffffffffffffffffffff16905090565b606060048054610566906113f4565b80601f0160208091040260200160405190810160405280929190818152602001828054610592906113f4565b80156105df5780601f106105b4576101008083540402835291602001916105df565b820191906000526020600020905b8154815290600101906020018083116105c257829003601f168201915b5050505050905090565b6000806105f4610719565b90506106018185856107c8565b600191505092915050565b6000600160008473ffffffffffffffffffffffffffffffffffffffff1673ffffffffffffffffffffffffffffffffffffffff16815260200190815260200160002060008373ffffffffffffffffffffffffffffffffffffffff1673ffffffffffffffffffffffffffffffffffffffff16815260200190815260200160002054905092915050565b61069b6108bc565b600073ffffffffffffffffffffffffffffffffffffffff168173ffffffffffffffffffffffffffffffffffffffff160361070d5760006040517f1e4fbdf7000000000000000000000000000000000000000000000000000000008152600401610704919061136a565b60405180910390fd5b61071681610a7d565b50565b600033905090565b61072e8383836001610c28565b505050565b600061073f848461060c565b90507fffffffffffffffffffffffffffffffffffffffffffffffffffffffffffffffff8110156107c257818110156107b2578281836040517ffb8f41b20000000000000000000000000000000000000000000000000000000081526004016107a993929190611425565b60405180910390fd5b6107c184848484036000610c28565b5b50505050565b600073ffffffffffffffffffffffffffffffffffffffff168373ffffffffffffffffffffffffffffffffffffffff160361083a5760006040517f96c6fd1e000000000000000000000000000000000000000000000000000000008152600401610831919061136a565b60405180910390fd5b600073ffffffffffffffffffffffffffffffffffffffff168273ffffffffffffffffffffffffffffffffffffffff16036108ac5760006040517fec442f050000000000000000000000000000000000000000000000000000000081526004016108a3919061136a565b60405180910390fd5b6108b7838383610dff565b505050565b6108c4610719565b73ffffffffffffffffffffffffffffffffffffffff166108e261052d565b73ffffffffffffffffffffffffffffffffffffffff161461094157610905610719565b6040517f118cdaa7000000000000000000000000000000000000000000000000000000008152600401610938919061136a565b60405180910390fd5b565b61094b610e0f565b6000600560006101000a81548160ff0219169083151502179055507f5db9ee0a495bf2e6ff9c91a7834c1ba4fdd244a5e8aa4e537bd38aeae4b073aa61098f610719565b60405161099c919061136a565b60405180910390a1565b6109ae610488565b156109e5576040517fd93c066500000000000000000000000000000000000000000000000000000000815260040160405180910390fd5b565b600073ffffffffffffffffffffffffffffffffffffffff168273ffffffffffffffffffffffffffffffffffffffff1603610a595760006040517fec442f05000000000000000000000000000000000000000000000000000000008152600401610a50919061136a565b60405180910390fd5b610a6560008383610dff565b5050565b610a7a610a74610719565b82610b43565b50565b6000600560019054906101000a900473ffffffffffffffffffffffffffffffffffffffff16905081600560016101000a81548173ffffffffffffffffffffffffffffffffffffffff021916908373ffffffffffffffffffffffffffffffffffffffff1602179055508173ffffffffffffffffffffffffffffffffffffffff168173ffffffffffffffffffffffffffffffffffffffff167f8be0079c531659141344cd1fd0a4f28419497f9722a3daafe3b4186f6b6457e060405160405180910390a35050565b600073ffffffffffffffffffffffffffffffffffffffff168273ffffffffffffffffffffffffffffffffffffffff1603610bb55760006040517f96c6fd1e000000000000000000000000000000000000000000000000000000008152600401610bac919061136a565b60405180910390fd5b610bc182600083610dff565b5050565b610bcd6109a6565b6001600560006101000a81548160ff0219169083151502179055507f62e78cea01bee320cd4e420270b5ea74000d11b0c9f74754ebdbfc544b05a258610c11610719565b604051610c1e919061136a565b60405180910390a1565b600073ffffffffffffffffffffffffffffffffffffffff168473ffffffffffffffffffffffffffffffffffffffff1603610c9a5760006040517fe602df05000000000000000000000000000000000000000000000000000000008152600401610c91919061136a565b60405180910390fd5b600073ffffffffffffffffffffffffffffffffffffffff168373ffffffffffffffffffffffffffffffffffffffff1603610d0c5760006040517f94280d62000000000000000000000000000000000000000000000000000000008152600401610d03919061136a565b60405180910390fd5b81600160008673ffffffffffffffffffffffffffffffffffffffff1673ffffffffffffffffffffffffffffffffffffffff16815260200190815260200160002060008573ffffffffffffffffffffffffffffffffffffffff1673ffffffffffffffffffffffffffffffffffffffff168152602001908152602001600020819055508015610df9578273ffffffffffffffffffffffffffffffffffffffff168473ffffffffffffffffffffffffffffffffffffffff167f8c5be1e5ebec7d5bd14f71427d1e84f3dd0314c0f7b2291e5b200ac8c7c3b92584604051610df0919061125c565b60405180910390a35b50505050565b610e0a838383610e4f565b505050565b610e17610488565b610e4d576040517f8dfc202b00000000000000000000000000000000000000000000000000000000815260040160405180910390fd5b565b610e576109a6565b610e62838383610e67565b505050565b600073ffffffffffffffffffffffffffffffffffffffff168373ffffffffffffffffffffffffffffffffffffffff1603610eb9578060026000828254610ead919061148b565b92505081905550610f8c565b60008060008573ffffffffffffffffffffffffffffffffffffffff1673ffffffffffffffffffffffffffffffffffffffff16815260200190815260200160002054905081811015610f45578381836040517fe450d38c000000000000000000000000000000000000000000000000000000008152600401610f3c93929190611425565b60405180910390fd5b8181036000808673ffffffffffffffffffffffffffffffffffffffff1673ffffffffffffffffffffffffffffffffffffffff16815260200190815260200160002081905550505b600073ffffffffffffffffffffffffffffffffffffffff168273ffffffffffffffffffffffffffffffffffffffff1603610fd55780600260008282540392505081905550611022565b806000808473ffffffffffffffffffffffffffffffffffffffff1673ffffffffffffffffffffffffffffffffffffffff168152602001908152602001600020600082825401925050819055505b8173ffffffffffffffffffffffffffffffffffffffff168373ffffffffffffffffffffffffffffffffffffffff167fddf252ad1be2c89b69c2b068fc378daa952ba7f163c4a11628f55a4df523b3ef8360405161107f919061125c565b60405180910390a3505050565b600081519050919050565b600082825260208201905092915050565b60005b838110156110c65780820151818401526020810190506110ab565b60008484015250505050565b6000601f19601f8301169050919050565b60006110ee8261108c565b6110f88185611097565b93506111088185602086016110a8565b611111816110d2565b840191505092915050565b6000602082019050818103600083015261113681846110e3565b905092915050565b600080fd5b600073ffffffffffffffffffffffffffffffffffffffff82169050919050565b600061116e82611143565b9050919050565b61117e81611163565b811461118957600080fd5b50565b60008135905061119b81611175565b92915050565b6000819050919050565b6111b4816111a1565b81146111bf57600080fd5b50565b6000813590506111d1816111ab565b92915050565b600080604083850312156111ee576111ed61113e565b5b60006111fc8582860161118c565b925050602061120d858286016111c2565b9150509250929050565b60008115159050919050565b61122c81611217565b82525050565b60006020820190506112476000830184611223565b92915050565b611256816111a1565b82525050565b6000602082019050611271600083018461124d565b92915050565b6000806000606084860312156112905761128f61113e565b5b600061129e8682870161118c565b93505060206112af8682870161118c565b92505060406112c0868287016111c2565b9150509250925092565b600060ff82169050919050565b6112e0816112ca565b82525050565b60006020820190506112fb60008301846112d7565b92915050565b6000602082840312156113175761131661113e565b5b6000611325848285016111c2565b91505092915050565b6000602082840312156113445761134361113e565b5b60006113528482850161118c565b91505092915050565b61136481611163565b82525050565b600060208201905061137f600083018461135b565b92915050565b6000806040838503121561139c5761139b61113e565b5b60006113aa8582860161118c565b92505060206113bb8582860161118c565b9150509250929050565b7f4e487b7100000000000000000000000000000000000000000000000000000000600052602260045260246000fd5b6000600282049050600182168061140c57607f821691505b60208210810361141f5761141e6113c5565b5b50919050565b600060608201905061143a600083018661135b565b611447602083018561124d565b611454604083018461124d565b949350505050565b7f4e487b7100000000000000000000000000000000000000000000000000000000600052601160045260246000fd5b6000611496826111a1565b91506114a1836111a1565b92508282019050808211156114b9576114b861145c565b5b9291505056fea26469706673582212201444a08cc37114adb7e1b104591502572ef4f1e45a6952a896dcff1d4601291564736f6c63430008140033",
  "linkReferences": {},
  "deployedLinkReferences": {}
}